:100000000C9434000C9451000C9451000C94510049
:100010000C9451000C9451000C9451000C9451001C
:100020000C9451000C9451000C9451000C9451000C
:100030000C9451000C9451000C94BF000C9451008E
:100040000C9451000C9451000C9451000C945100EC
:100050000C9451000C9451000C9451000C945100DC
:100060000C9451000C94510011241FBECFEFD8E026
:10007000DEBFCDBF11E0A0E0B1E0EAE5FAE002C0EA
:1000800005900D92A431B107D9F721E0A4E1B1E0C8
:1000900001C01D92AA31B207E1F70E94B2000C9490
:1000A0002B050C9400000FB60F92FF93EF93DF9394
:1000B000CF93BF93AF939F938F937F936F935F93F0
:1000C0004F933F932F931F930F93FF92EF92DF92E3
:1000D000CF92BF92AF929F928F927F926F925F92D8
:1000E0004F923F922F921F920F92A82FB92F0DB6C9
:1000F0000D920EB60C92A62FB72F6D917C916DBF0D
:100100007EBF0F901F902F903F904F905F906F9009
:100110007F908F909F90AF90BF90CF90DF90EF90A7
:10012000FF900F911F912F913F914F915F916F9190
:100130007F918F919F91AF91BF91CF91DF91EF917F
:10014000FF910F900FBE1895CF93DF93CDB7DEB719
:10015000809114019091150101969093150180935F
:100160001401F6CFCF93DF93CDB7DEB70E94EE0038
:1001700060E870E084EA90E00E945902FFCF1F928D
:100180000F9200905F000F9211242F933F934F9393
:100190005F936F937F938F939F93AF93BF93EF93EF
:1001A000FF93CF93DF93CDB7DEB7F8940E94800220
:1001B00078940000DF91CF91FF91EF91BF91AF91C3
:1001C0009F918F917F916F915F914F913F912F916F
:1001D0000F9000925F000F901F901895CF93DF93C0
:1001E000CDB7DEB781E090E00E94F6020000DF911B
:1001F000CF910895CF93DF9300D01F92CDB7DEB794
:100200009A8389836B8389819A81FC0180819181A2
:100210002B81FC01208389819A81FC01808191815D
:100220009C012150310989819A81FC01318320830D
:1002300000000F900F900F90DF91CF910895CF9312
:10024000DF9300D0CDB7DEB788E091E09A83898351
:1002500007C089819A81FC01828193819A83898375
:1002600089819A81FC0182819381892B91F789810F
:100270009A810F900F90DF91CF910895CF93DF93E4
:1002800000D0CDB7DEB79A83898389819A81099698
:100290000F900F90DF91CF910895CF93DF9300D00F
:1002A00000D01F92CDB7DEB79B838A837D836C839A
:1002B00084E392E0282F8A819B81622F0E94FA00BA
:1002C00084E392E0892F9927282F8A819B81622FCE
:1002D0000E94FA008C819D81282F8A819B81622F48
:1002E0000E94FA008C819D81892F9927282F8A816D
:1002F0009B81622F0E94FA008A819B8160E00E94AC
:10030000FA00198208C08A819B8160E00E94FA008D
:1003100089818F5F898389818032A8F300000F90E3
:100320000F900F900F900F90DF91CF910895CF9382
:10033000DF93CDB7DEB728970FB6F894DEBF0FBEB8
:10034000CDBF9C838B837E836D8358874F838B8146
:100350009C819A8389838F8198850E943E019C01AC
:100360008B819C81280F391F89819A81FC013183FF
:10037000208389819A8121E0FC01208789819A81EB
:10038000FC011382128280910601909107019C0169
:100390002F5F3F4F309307012093060129813A8157
:1003A000F9019783868389819A81FC0120813181BB
:1003B00089819A81FC01358324830E941F019C015D
:1003C00089819A81F901938382832D813E8189817C
:1003D0009A81B9010E944D01000028960FB6F89449
:1003E000DEBF0FBECDBFDF91CF910895CF93DF93D6
:1003F00000D0CDB7DEB79A83898389819A810E9424
:100400003E010E940A040F900F90DF91CF91089552
:10041000CF93DF9300D0CDB7DEB79A8389838981EC
:100420009A81FC0182819381892BB9F089819A811B
:10043000FC0182819381FC018085813031F48981C6
:100440009A81FC01828193810AC089819A81FC0191
:10045000828193810E94080202C088E091E00F909F
:100460000F90DF91CF910895CF93DF93CDB7DEB793
:10047000809111019091120124E0FC012087FFCFAF
:10048000CF93DF9300D000D0CDB7DEB79A838983B6
:100490007C836B832B813C8189819A81B9010E9485
:1004A000530000000F900F900F900F90DF91CF91AD
:1004B0000895CF93DF9300D000D000D0CDB7DEB742
:1004C0009C838B837E836D83F8948D819E810E94B3
:1004D000F6019A8389834D815E812B813C818981DC
:1004E0009A81B9010E949701789481E090E0269664
:1004F0000FB6F894DEBF0FBECDBFDF91CF91089548
:10050000CF93DF9300D000D000D0CDB7DEB7F89402
:1005100080911101909112010E9408029A838983AF
:10052000809111019091120129813A812817390790
:10053000B9F080911101909112019C838B83898184
:100540009A819E838D8389819A81909312018093F1
:1005500011012D813E818B819C81B9010E94400255
:100560007894000026960FB6F894DEBF0FBECDBF7C
:10057000DF91CF910895CF93DF93CDB7DEB784E4B9
:1005800090E024E430E0F90120812C7FFC012083FD
:1005900084E490E024E430E0F90120812260FC0151
:1005A00020830000DF91CF910895CF93DF931F92B6
:1005B000CDB7DEB7898387E490E02981FC012083F1
:1005C00000000F90DF91CF910895CF93DF93CDB7C7
:1005D000DEB78EE690E02EE630E0F9012081226061
:1005E000FC0120830000DF91CF910895CF93DF932A
:1005F00000D000D000D0CDB7DEB79E838D83F894B5
:100600000E94E5020E94BB028D819E819C01990F90
:10061000440B550B80E29EE4DC010E94F003DC01F8
:10062000CB0189839A83AB83BC8385E490E025E486
:1006300030E0F9012081287FFC01208389819A81A3
:10064000AB81BC818F3F9105A105B10509F054F440
:1006500085E490E025E430E0F90120812160FC018F
:100660002083B0C089819A81AB81BC81811598407B
:10067000A105B105FCF485E490E025E430E0F90142
:1006800020812260FC01208389819A81AB81BC8119
:10069000BB231CF40796A11DB11D689412F8B595F3
:1006A000A795979587951694D1F789839A83AB83FD
:1006B000BC8388C089819A81AB81BC8181159044BB
:1006C000A105B10544F585E490E025E430E0F901A9
:1006D00020812160FC01208385E490E025E430E066
:1006E000F90120812260FC01208389819A81AB81FC
:1006F000BC81BB231CF4CF96A11DB11D689415F8D5
:10070000B595A795979587951694D1F789839A8380
:10071000AB83BC8357C089819A81AB81BC81009730
:10072000A140B105F4F485E490E025E430E0F9015E
:1007300020812460FC01208389819A81AB81BC8166
:10074000BB2324F481509F4FAF4FBF4F892F9A2F67
:10075000AB2FBB27A7FDBA9589839A83AB83BC8354
:1007600031C089819A81AB81BC810097A440B105D9
:100770004CF585E490E025E430E0F901208121602A
:10078000FC01208385E490E025E430E0F90120813C
:100790002460FC01208389819A81AB81BC81BB23C9
:1007A00024F481509C4FAF4FBF4F072E7AE0B59590
:1007B000A795979587957A95D1F7702D89839A8318
:1007C000AB83BC8389810E94D50278940000269671
:1007D0000FB6F894DEBF0FBECDBFDF91CF91089565
:1007E0000E94FB03A59F900DB49F900DA49F800DC8
:1007F000911D11240895A29FB001B39FC001A39F32
:10080000700D811D1124911DB29F700D811D112449
:10081000911D08950F931F93CF93DF93823091051D
:1008200010F482E090E0E0911801F091190120E0CD
:1008300030E0A0E0B0E0309719F1408151810281B1
:10084000138148175907C8F08417950769F4109762
:1008500031F012960C93129713961C9327C00093B5
:1008600018011093190122C02115310519F0421702
:10087000530718F49A01BD01EF01DF01F801DBCF46
:1008800021153105F9F0281B390B2430310580F48E
:100890008A819B816115710521F0FB01938382831D
:1008A00004C09093190180931801FE01329644C050
:1008B000FE01E20FF31F8193919322503109398396
:1008C00028833AC02091160130911701232B41F45F
:1008D00020910201309103013093170120931601FA
:1008E00020910001309101012115310541F42DB70E
:1008F0003EB74091040150910501241B350BE09156
:100900001601F0911701E217F307A0F42E1B3F0B1D
:100910002817390778F0AC014E5F5F4F2417350771
:1009200048F04E0F5F1F50931701409316018193BB
:10093000919302C0E0E0F0E0CF01DF91CF911F91F1
:100940000F910895CF93DF93009709F481C0FC01C4
:10095000329713821282A0911801B0911901109759
:1009600081F420813181820F931F209116013091F3
:1009700017012817390751F5F0931701E093160175
:1009800067C0ED0120E030E0CE17DF0740F44A8178
:100990005B819E0141155105F1F0EA01F5CFD3834A
:1009A000C28340815181840F951FC817D90759F41C
:1009B00088819981840F951F0296918380838A8113
:1009C0009B81938382832115310529F4F0931901CA
:1009D000E09318013DC0E901FB83EA8349915991F5
:1009E000C40FD51FEC17FD0761F480819181840F3E
:1009F000951F0296E90199838883828193819B8365
:100A00008A83E0E0F0E012968D919C911397009715
:100A100019F0FD01DC01F7CF8D919C9111979D019B
:100A20002E5F3F4F820F931F2091160130911701C7
:100A30002817390769F4309729F410921901109298
:100A4000180102C013821282B0931701A0931601FD
:0A0A5000DF91CF910895F894FFCFD5
:100A5A0000001A0120000200FF0800000000010047
:040A6A00010801007E
:00000001FF
